{
  "_format": "hh-sol-artifact-1",
  "contractName": "SuperEscrow",
  "sourceName": "contracts/SuperEscrow.sol",
  "abi": [
    {
      "inputs": [],
      "stateMutability": "nonpayable",
      "type": "constructor"
    },
    {
      "anonymous": false,
      "inputs": [
        {
          "indexed": false,
          "internalType": "uint256",
          "name": "id",
          "type": "uint256"
        },
        {
          "indexed": false,
          "internalType": "address",
          "name": "seller",
          "type": "address"
        }
      ],
      "name": "AccessCodeSent",
      "type": "event"
    },
    {
      "anonymous": false,
      "inputs": [
        {
          "indexed": false,
          "internalType": "uint256",
          "name": "id",
          "type": "uint256"
        },
        {
          "indexed": false,
          "internalType": "uint256",
          "name": "price",
          "type": "uint256"
        },
        {
          "indexed": false,
          "internalType": "address",
          "name": "buyer",
          "type": "address"
        }
      ],
      "name": "BuyAccepted",
      "type": "event"
    },
    {
      "inputs": [
        {
          "internalType": "uint256",
          "name": "_id",
          "type": "uint256"
        }
      ],
      "name": "buy",
      "outputs": [],
      "stateMutability": "payable",
      "type": "function"
    },
    {
      "inputs": [
        {
          "internalType": "uint256",
          "name": "_id",
          "type": "uint256"
        }
      ],
      "name": "getTxInfo",
      "outputs": [
        {
          "components": [
            {
              "internalType": "uint256",
              "name": "id",
              "type": "uint256"
            },
            {
              "internalType": "string",
              "name": "url",
              "type": "string"
            },
            {
              "internalType": "address",
              "name": "buyer",
              "type": "address"
            },
            {
              "internalType": "address",
              "name": "seller",
              "type": "address"
            },
            {
              "internalType": "string",
              "name": "passcode",
              "type": "string"
            },
            {
              "internalType": "uint256",
              "name": "price",
              "type": "uint256"
            },
            {
              "internalType": "bool",
              "name": "isPaid",
              "type": "bool"
            },
            {
              "internalType": "bool",
              "name": "isSentToSeller",
              "type": "bool"
            }
          ],
          "internalType": "struct SuperEscrow.Transaction",
          "name": "",
          "type": "tuple"
        }
      ],
      "stateMutability": "view",
      "type": "function"
    },
    {
      "inputs": [
        {
          "internalType": "uint256",
          "name": "_id",
          "type": "uint256"
        },
        {
          "internalType": "string",
          "name": "passcode",
          "type": "string"
        }
      ],
      "name": "getUrl",
      "outputs": [
        {
          "internalType": "string",
          "name": "",
          "type": "string"
        }
      ],
      "stateMutability": "view",
      "type": "function"
    },
    {
      "inputs": [],
      "name": "nextId",
      "outputs": [
        {
          "internalType": "uint256",
          "name": "",
          "type": "uint256"
        }
      ],
      "stateMutability": "view",
      "type": "function"
    },
    {
      "inputs": [
        {
          "internalType": "string",
          "name": "_url",
          "type": "string"
        },
        {
          "internalType": "uint256",
          "name": "_price",
          "type": "uint256"
        }
      ],
      "name": "sell",
      "outputs": [],
      "stateMutability": "nonpayable",
      "type": "function"
    },
    {
      "inputs": [
        {
          "internalType": "uint256",
          "name": "_id",
          "type": "uint256"
        },
        {
          "internalType": "string",
          "name": "passcode",
          "type": "string"
        }
      ],
      "name": "sendCode",
      "outputs": [],
      "stateMutability": "nonpayable",
      "type": "function"
    }
  ],
  "bytecode": "0x6080604052600160025534801561001557600080fd5b506001600055600380546001600160a01b03191633179055610f138061003c6000396000f3fe6080604052600436106100555760003560e01c806325d8d7591461005a5780634da711cb1461007c57806361b8ce8c146100b257806370398706146100d65780639f65632114610103578063d96a094a14610123575b600080fd5b34801561006657600080fd5b5061007a610075366004610bf7565b610136565b005b34801561008857600080fd5b5061009c610097366004610bf7565b6103cc565b6040516100a99190610c8a565b60405180910390f35b3480156100be57600080fd5b506100c860025481565b6040519081526020016100a9565b3480156100e257600080fd5b506100f66100f1366004610ca4565b6105dc565b6040516100a99190610cbd565b34801561010f57600080fd5b5061007a61011e366004610d67565b6107d4565b61007a610131366004610ca4565b6108f4565b6002600054141561018e5760405162461bcd60e51b815260206004820152601f60248201527f5265656e7472616e637947756172643a207265656e7472616e742063616c6c0060448201526064015b60405180910390fd5b600260009081558281526001602052604090206006015460ff166101c45760405162461bcd60e51b815260040161018590610dab565b6000828152600160205260409020600301546001600160a01b031633146102295760405162461bcd60e51b81526020600482015260196024820152784f6e6c792073656c6c65722063616e2073656e6420636f646560381b6044820152606401610185565b600082815260016020526040902060060154610100900460ff16156102845760405162461bcd60e51b8152602060048201526011602482015270105b1c9958591e481c1c9bd8d95cdcd959607a1b6044820152606401610185565b600082815260016020526040808220600381015460059091015491516001600160a01b0390911691908381818185875af1925050503d80600081146102e5576040519150601f19603f3d011682016040523d82523d6000602084013e6102ea565b606091505b50509050806103325760405162461bcd60e51b81526020600482015260146024820152732330b4b632b2103a379039b2b7321022ba3432b960611b6044820152606401610185565b6000838152600160209081526040909120835161035792600490920191850190610abc565b5060008381526001602052604090819020600601805461ff001916610100179055517ff377317b7e9bdf87deea93e1784af4aa42f08873e9a9606e0506cedda8837d4c906103ba90859033909182526001600160a01b0316602082015260400190565b60405180910390a15050600160005550565b60008281526001602052604090206006015460609060ff166104005760405162461bcd60e51b815260040161018590610dab565b600083815260016020526040902060060154610100900460ff1661045f5760405162461bcd60e51b81526020600482015260166024820152752737ba103cb2ba1039b2b73a103a379039b2b63632b960511b6044820152606401610185565b6000838152600160205260409020600201546001600160a01b031633146104c15760405162461bcd60e51b815260206004820152601660248201527513db9b1e48189d5e595c8818d85b8819d95d081d5c9b60521b6044820152606401610185565b8180519060200120600160008581526020019081526020016000206004016040516104ec9190610e18565b6040518091039020146105395760405162461bcd60e51b815260206004820152601560248201527414185cdcd8dbd919481a5cc81a5b98dbdc9c9958dd605a1b6044820152606401610185565b600083815260016020819052604090912001805461055690610ddd565b80601f016020809104026020016040519081016040528092919081815260200182805461058290610ddd565b80156105cf5780601f106105a4576101008083540402835291602001916105cf565b820191906000526020600020905b8154815290600101906020018083116105b257829003601f168201915b5050505050905092915050565b61063a604051806101000160405280600081526020016060815260200160006001600160a01b0316815260200160006001600160a01b0316815260200160608152602001600081526020016000151581526020016000151581525090565b600082815260016020818152604092839020835161010081019094528054845291820180549184019161066c90610ddd565b80601f016020809104026020016040519081016040528092919081815260200182805461069890610ddd565b80156106e55780601f106106ba576101008083540402835291602001916106e5565b820191906000526020600020905b8154815290600101906020018083116106c857829003601f168201915b505050918352505060028201546001600160a01b039081166020830152600383015416604082015260048201805460609092019161072290610ddd565b80601f016020809104026020016040519081016040528092919081815260200182805461074e90610ddd565b801561079b5780601f106107705761010080835404028352916020019161079b565b820191906000526020600020905b81548152906001019060200180831161077e57829003601f168201915b50505091835250506005820154602082015260069091015460ff8082161515604084015261010090910416151560609091015292915050565b60408051610100810182526002548082526020808301868152600084860181905233606086015285518084018752818152608086015260a0850187905260c0850181905260e08501819052928352600180835294909220835181559151805193948594610848939185019290910190610abc565b5060408201516002820180546001600160a01b039283166001600160a01b03199182161790915560608401516003840180549190931691161790556080820151805161089e916004840191602090910190610abc565b5060a0820151600582015560c08201516006909101805460e09093015115156101000261ff00199215159290921661ffff1990931692909217179055600280549060006108ea83610eb4565b9190505550505050565b60008181526001602052604090206005015434101561094a5760405162461bcd60e51b81526020600482015260126024820152710a0c2f2dacadce840dcdee840cadcdeeaced60731b6044820152606401610185565b806002541161098a5760405162461bcd60e51b815260206004820152600c60248201526b4e6f74206578697374696e6760a01b6044820152606401610185565b60008181526001602081905260409091206006015460ff16151514156109e35760405162461bcd60e51b815260206004820152600e60248201526d105b1c9958591e48189bdd59da1d60921b6044820152606401610185565b600081815260016020819052604090912060060154610100900460ff1615151415610a425760405162461bcd60e51b815260206004820152600f60248201526e105b1c9958591e4818db185a5b5959608a1b6044820152606401610185565b6000818152600160208181526040928390206002810180546001600160a01b0319163390811790915560068201805460ff191690941790935560050154835185815291820152918201527fdda79d5f0f7eab1dacc513075c63bf7c12070a6dc6acba7fbc06dba8497dc9b69060600160405180910390a150565b828054610ac890610ddd565b90600052602060002090601f016020900481019282610aea5760008555610b30565b82601f10610b0357805160ff1916838001178555610b30565b82800160010185558215610b30579182015b82811115610b30578251825591602001919060010190610b15565b50610b3c929150610b40565b5090565b5b80821115610b3c5760008155600101610b41565b634e487b7160e01b600052604160045260246000fd5b600082601f830112610b7c57600080fd5b81356001600160401b0380821115610b9657610b96610b55565b604051601f8301601f19908116603f01168101908282118183101715610bbe57610bbe610b55565b81604052838152866020858801011115610bd757600080fd5b836020870160208301376000602085830101528094505050505092915050565b60008060408385031215610c0a57600080fd5b8235915060208301356001600160401b03811115610c2757600080fd5b610c3385828601610b6b565b9150509250929050565b6000815180845260005b81811015610c6357602081850181015186830182015201610c47565b81811115610c75576000602083870101525b50601f01601f19169290920160200192915050565b602081526000610c9d6020830184610c3d565b9392505050565b600060208284031215610cb657600080fd5b5035919050565b602081528151602082015260006020830151610100806040850152610ce6610120850183610c3d565b915060018060a01b0360408601511660608501526060850151610d1460808601826001600160a01b03169052565b506080850151848303601f190160a0860152610d308382610c3d565b92505060a085015160c085015260c0850151610d5060e086018215159052565b5060e0850151801515858301525090949350505050565b60008060408385031215610d7a57600080fd5b82356001600160401b03811115610d9057600080fd5b610d9c85828601610b6b565b95602094909401359450505050565b602080825260189082015277151c985b9cd858dd1a5bdb881b9bdd081e595d081c185a5960421b604082015260600190565b600181811c90821680610df157607f821691505b60208210811415610e1257634e487b7160e01b600052602260045260246000fd5b50919050565b600080835481600182811c915080831680610e3457607f831692505b6020808410821415610e5457634e487b7160e01b86526022600452602486fd5b818015610e685760018114610e7957610ea6565b60ff19861689528489019650610ea6565b60008a81526020902060005b86811015610e9e5781548b820152908501908301610e85565b505084890196505b509498975050505050505050565b6000600019821415610ed657634e487b7160e01b600052601160045260246000fd5b506001019056fea2646970667358221220ac557cdc7802715d36211011eaaf7cd226b0af3fd335556490e081eedf01d30664736f6c63430008090033",
  "linkReferences": {},
  "deployedLinkReferences": {}
}